{
  "contractName": "Owned",
  "abi": [
    {
      "anonymous": false,
      "inputs": [
        {
          "indexed": true,
          "internalType": "address",
          "name": "_from",
          "type": "address"
        },
        {
          "indexed": true,
          "internalType": "address",
          "name": "_to",
          "type": "address"
        }
      ],
      "name": "OwnershipTransferred",
      "type": "event"
    },
    {
      "inputs": [],
      "name": "_newOwner",
      "outputs": [
        {
          "internalType": "address",
          "name": "",
          "type": "address"
        }
      ],
      "stateMutability": "view",
      "type": "function"
    },
    {
      "inputs": [],
      "name": "_owner",
      "outputs": [
        {
          "internalType": "address",
          "name": "",
          "type": "address"
        }
      ],
      "stateMutability": "view",
      "type": "function"
    },
    {
      "inputs": [
        {
          "internalType": "address",
          "name": "newOwner",
          "type": "address"
        }
      ],
      "name": "transferOwnership",
      "outputs": [],
      "stateMutability": "nonpayable",
      "type": "function"
    },
    {
      "inputs": [],
      "name": "acceptOwnership",
      "outputs": [],
      "stateMutability": "nonpayable",
      "type": "function"
    }
  ],
  "bytecode": "0x608060405234801561001057600080fd5b506104f2806100206000396000f3fe608060405234801561001057600080fd5b506004361061004c5760003560e01c806379ba509714610051578063b2bdfa7b1461005b578063b74908fe1461008f578063f2fde38b146100c3575b600080fd5b610059610107565b005b6100636102f6565b604051808273ffffffffffffffffffffffffffffffffffffffff16815260200191505060405180910390f35b61009761031a565b604051808273ffffffffffffffffffffffffffffffffffffffff16815260200191505060405180910390f35b610105600480360360208110156100d957600080fd5b81019080803573ffffffffffffffffffffffffffffffffffffffff169060200190929190505050610340565b005b600160009054906101000a900473ffffffffffffffffffffffffffffffffffffffff1673ffffffffffffffffffffffffffffffffffffffff1661014861042f565b73ffffffffffffffffffffffffffffffffffffffff16146101b4576040517f08c379a00000000000000000000000000000000000000000000000000000000081526004018080602001828103825260458152602001806104786045913960600191505060405180910390fd5b600160009054906101000a900473ffffffffffffffffffffffffffffffffffffffff1673ffffffffffffffffffffffffffffffffffffffff1660008054906101000a900473ffffffffffffffffffffffffffffffffffffffff1673ffffffffffffffffffffffffffffffffffffffff167f8be0079c531659141344cd1fd0a4f28419497f9722a3daafe3b4186f6b6457e060405160405180910390a3600160009054906101000a900473ffffffffffffffffffffffffffffffffffffffff166000806101000a81548173ffffffffffffffffffffffffffffffffffffffff021916908373ffffffffffffffffffffffffffffffffffffffff1602179055506000600160006101000a81548173ffffffffffffffffffffffffffffffffffffffff021916908373ffffffffffffffffffffffffffffffffffffffff160217905550565b60008054906101000a900473ffffffffffffffffffffffffffffffffffffffff1681565b600160009054906101000a900473ffffffffffffffffffffffffffffffffffffffff1681565b60008054906101000a900473ffffffffffffffffffffffffffffffffffffffff1673ffffffffffffffffffffffffffffffffffffffff1661037f61042f565b73ffffffffffffffffffffffffffffffffffffffff16146103eb576040517f08c379a00000000000000000000000000000000000000000000000000000000081526004018080602001828103825260408152602001806104386040913960400191505060405180910390fd5b80600160006101000a81548173ffffffffffffffffffffffffffffffffffffffff021916908373ffffffffffffffffffffffffffffffffffffffff16021790555050565b60003390509056fe526967656c546f6b656e3a204f6e6c7920746865204f776e6572206f662074686520636f6e74726163742063616e20706572666f726d2074686973207461736b526967656c546f6b656e3a20546f6b656e20436f6e7472616374204f776e65727368697020686173206e6f74206265656e2073657420666f72207468652061646472657373a2646970667358221220f47669b5dd59734604946ad6f4dc5ab3be2e9bf2cb0feda068692b581883d64b64736f6c634300060c0033",
  "immutableReferences": {},
  "source": "// SPDX-License-Identifier: MIT\r\npragma solidity 0.6.12;\r\n\r\nimport \"@openzeppelin/contracts/token/ERC20/IERC20.sol\";\r\nimport \"@openzeppelin/contracts/math/SafeMath.sol\";\r\nimport \"@openzeppelin/contracts/GSN/Context.sol\";\r\n\r\n\r\n/**\r\n * @dev Implementation of the Owned Contract.\r\n *\r\n */\r\ncontract Owned is Context {\r\n\r\n    address public _owner;\r\n    address public _newOwner;\r\n\r\n    event OwnershipTransferred(address indexed _from, address indexed _to);\r\n\r\n    modifier onlyOwner {\r\n        require(_msgSender() == _owner, \"RigelToken: Only Owner can perform this task\");\r\n        _;\r\n    }\r\n\r\n    function transferOwnership(address newOwner) public onlyOwner {\r\n        _newOwner = newOwner;\r\n    }\r\n\r\n    function acceptOwnership() public {\r\n        require(_msgSender() == _newOwner, \"RigelToken: Token Contract Ownership has not been set for the address\");\r\n        emit OwnershipTransferred(_owner, _newOwner);\r\n        _owner = _newOwner;\r\n        _newOwner = address(0);\r\n    }\r\n}\r\n\r\n/**\r\n * @dev Implementation of the {IERC20} interface.\r\n *\r\n */\r\ncontract RigelToken is IERC20, Owned {\r\n\r\n    using SafeMath for uint256;\r\n    \r\n    mapping (address => uint256) private _balances; // Total balance per address (locked + unlocked)\r\n\r\n    mapping (address => uint256) private _unlockedTokens; // Unlocked Tokens, available for transfer\r\n\r\n    mapping (address => mapping (address => uint256)) private _allowances;\r\n\r\n    struct LockRecord {\r\n        uint256 lockingPeriod;\r\n        uint256 tokens;\r\n        bool isUnlocked;\r\n    }\r\n\r\n    mapping(address => LockRecord[]) records; // Record of Locking periods and tokens per address\r\n\r\n    uint256 private _totalSupply;\r\n\r\n    string private _name;\r\n    string private _symbol;\r\n    uint8 private _decimals;\r\n\r\n    constructor( address owner ) public {\r\n        _name = \"RigelToken\";\r\n        _symbol = \"RGP\";\r\n        _decimals = 18;\r\n        _totalSupply = 20000000 * (10 ** 18);\r\n        _owner = owner;\r\n        _balances[_owner] = _totalSupply;\r\n        _unlockedTokens[_owner] = _totalSupply;\r\n        emit Transfer(address(0), _owner, _totalSupply );\r\n    }\r\n\r\n    /**\r\n     * @dev Returns the name of the token.\r\n     */\r\n    function name() public view returns (string memory) {\r\n        return _name;\r\n    }\r\n\r\n    /**\r\n     * @dev Returns the symbol of the token, usually a shorter version of the\r\n     * name.\r\n     */\r\n    function symbol() public view returns (string memory) {\r\n        return _symbol;\r\n    }\r\n\r\n    /**\r\n     * @dev Returns the number of decimals used to get its user representation.\r\n     * For example, if `decimals` equals `2`, a balance of `505` tokens should\r\n     * be displayed to a user as `5,05` (`505 / 10 ** 2`).\r\n     */\r\n    function decimals() public view returns (uint8) {\r\n        return _decimals;\r\n    }\r\n\r\n    /**\r\n     * @dev See {IERC20-totalSupply}.\r\n     */\r\n    function totalSupply() public view override returns (uint256) {\r\n        return _totalSupply;\r\n    }\r\n\r\n    /**\r\n     * @dev See {IERC20-balanceOf}.\r\n     */\r\n    function balanceOf(address account) public view override returns (uint256) {\r\n        return _balances[account];\r\n    }\r\n\r\n    /**\r\n     * @dev See {IERC20-balanceOf}.\r\n     */\r\n    function unLockedBalanceOf(address account) public view returns (uint256) {\r\n        return _unlockedTokens[account];\r\n    }\r\n\r\n    /**\r\n     * @dev See {IERC20-transfer}.\r\n     *\r\n     * Requirements:\r\n     *\r\n     * - `recipient` cannot be the zero address.\r\n     * - the caller must have a balance of at least `amount`.\r\n     */\r\n    function transfer(address recipient, uint256 amount) public override returns (bool) {\r\n\r\n        _transfer(_msgSender(),recipient,amount);\r\n        return true;\r\n    }\r\n\r\n    /**\r\n     * @dev See {IERC20-allowance}.\r\n     */\r\n    function allowance(address owner, address spender) public view override returns (uint256) {\r\n        return _allowances[owner][spender];\r\n    }\r\n\r\n    /**\r\n     * @dev See {IERC20-approve}.\r\n     *\r\n     * Requirements:\r\n     *\r\n     * - `spender` cannot be the zero address.\r\n     */\r\n    function approve(address spender, uint256 amount) public override returns (bool) {\r\n        \r\n        require(spender != address(0), \"RigelToken: approve to the zero address\");\r\n\r\n        _allowances[_msgSender()][spender] = amount;\r\n        emit Approval(_msgSender(), spender, amount);\r\n\r\n        return true;\r\n    }\r\n\r\n    /**\r\n     * @dev See {IERC20-transferFrom}.\r\n     *\r\n     * Emits an {Approval} event indicating the updated allowance. This is not\r\n     * required by the EIP. See the note at the beginning of {ERC20}.\r\n     *\r\n     * Requirements:\r\n     *\r\n     * - `sender` and `recipient` cannot be the zero address.\r\n     * - `sender` must have a balance of at least `amount`.\r\n     * - the caller must have allowance for ``sender``'s tokens of at least\r\n     * `amount`.\r\n     */\r\n    function transferFrom(address sender, address recipient, uint256 amount) public override returns (bool) {\r\n\r\n        require(amount <= _allowances[sender][_msgSender()],\"RigelToken: Check for approved token count failed\");\r\n\r\n        _transfer(sender,recipient,amount);\r\n        \r\n        _allowances[sender][_msgSender()] = _allowances[sender][_msgSender()].sub(amount);\r\n\r\n        emit Approval(sender, _msgSender(), _allowances[sender][_msgSender()]);\r\n\r\n        return true;\r\n    }\r\n\r\n    function _transfer(address sender, address recipient, uint256 amount) private {\r\n        \r\n        require(recipient != address(0),\"RigelToken: Cannot have recipient as zero address\");\r\n        require(sender != address(0),\"RigelToken: Cannot have sender as zero address\");\r\n        require(_balances[sender] >= amount,\"RigelToken: Insufficient Balance\" );\r\n        require(_balances[recipient] + amount >= _balances[recipient],\"RigelToken: Balance check failed\");\r\n        \r\n        // update the unlocked tokens based on time\r\n\r\n        _updateUnLockedTokens(sender, amount);\r\n        _unlockedTokens[sender] = _unlockedTokens[sender].sub(amount);\r\n        _unlockedTokens[recipient] = _unlockedTokens[recipient].add(amount);\r\n\r\n        _balances[sender] = _balances[sender].sub(amount);\r\n        _balances[recipient] = _balances[recipient].add(amount);\r\n        \r\n        emit Transfer(sender,recipient,amount);\r\n    }\r\n\r\n    function _transferLock(address sender, address recipient, uint256 amount) private {\r\n        \r\n        require(recipient != address(0),\"RigelToken: Cannot have recipient as zero address\");\r\n        require(sender != address(0),\"RigelToken: Cannot have sender as zero address\");\r\n        require(_balances[sender] >= amount,\"RigelToken: Insufficient Balance\" );\r\n        require(_balances[recipient] + amount >= _balances[recipient],\"RigelToken: Balance check failed\");\r\n        \r\n        // update the unlocked tokens based on time\r\n\r\n        _balances[sender] = _balances[sender].sub(amount);\r\n        _balances[recipient] = _balances[recipient].add(amount);\r\n\r\n        emit Transfer(sender,recipient,amount);\r\n    }\r\n    \r\n     /**\r\n     * @dev Destroys `amount` tokens from the `account`.\r\n     *\r\n     * See {ERC20-_burn}.\r\n     */\r\n     \r\n    function burn(address account, uint256 amount) public onlyOwner {\r\n\r\n        require(account != address(0), \"RigelToken: burn from the zero address\");\r\n\r\n        _balances[account] = _balances[account].sub(amount, \"RigelToken: burn amount exceeds balance\");\r\n\r\n        if( _balances[account] == _unlockedTokens[account]){\r\n            _unlockedTokens[account] = _unlockedTokens[account].sub(amount, \"RigelToken: burn amount exceeds balance\");\r\n        }\r\n\r\n        _totalSupply = _totalSupply.sub(amount);\r\n\r\n        emit Transfer(account, address(0), amount);\r\n    }\r\n\r\n    // ------------------------------------------------------------------------\r\n    // Transfer the balance from token owner's _msgSender() to `to` _msgSender()\r\n    // - Owner's _msgSender() must have sufficient balance to transfer\r\n    // - 0 value transfers are allowed\r\n    // - takes in locking Period to lock the tokens to be used\r\n    // - if want to transfer without locking enter 0 in lockingPeriod argument \r\n    // ------------------------------------------------------------------------\r\n    function distributeTokens(address to, uint tokens, uint256 lockingPeriod) onlyOwner public returns (bool success) {\r\n        // transfer tokens to the \"to\" address\r\n        transfer(to, tokens);\r\n        // if there is no lockingPeriod, add tokens to _unlockedTokens per address\r\n        if(lockingPeriod == 0)\r\n            _transfer(_msgSender(),to, tokens);\r\n        // if there is a lockingPeriod, add tokens to record mapping\r\n        else\r\n            _transferLock(_msgSender(),to, tokens);\r\n            _addRecord(to, tokens, lockingPeriod);\r\n        return true;\r\n    }\r\n        \r\n    // ------------------------------------------------------------------------\r\n    // Adds record of addresses with locking period and tokens to lock\r\n    // ------------------------------------------------------------------------\r\n    function _addRecord(address to, uint tokens, uint256 lockingPeriod) private {\r\n        records[to].push(LockRecord(lockingPeriod,tokens, false));\r\n    }\r\n        \r\n    // ------------------------------------------------------------------------\r\n    // Checks if there is required amount of unLockedTokens available\r\n    // ------------------------------------------------------------------------\r\n    function _updateUnLockedTokens(address _from, uint tokens) private returns (bool success) {\r\n        // if _unlockedTokens are greater than \"tokens\" of \"to\", initiate transfer\r\n        if(_unlockedTokens[_from] >= tokens){\r\n            return true;\r\n        }\r\n        // if _unlockedTokens are less than \"tokens\" of \"to\", update _unlockedTokens by checking record with \"now\" time\r\n        else{\r\n            _updateRecord(_from);\r\n            // check if _unlockedTokens are greater than \"token\" of \"to\", initiate transfer\r\n            if(_unlockedTokens[_from] >= tokens){\r\n                return true;\r\n            }\r\n            // otherwise revert\r\n            else{\r\n                revert(\"RigelToken: Insufficient unlocked tokens\");\r\n            }\r\n        }\r\n    }\r\n        \r\n    // ------------------------------------------------------------------------\r\n    // Unlocks the coins if lockingPeriod is expired\r\n    // ------------------------------------------------------------------------\r\n     function _updateRecord(address account) private returns (bool success){\r\n        LockRecord[] memory tempRecords = records[account];\r\n        uint256 unlockedTokenCount = 0;\r\n        for(uint256 i=0; i < tempRecords.length; i++){\r\n            if(tempRecords[i].lockingPeriod < now && tempRecords[i].isUnlocked == false){\r\n                unlockedTokenCount = unlockedTokenCount.add(tempRecords[i].tokens);\r\n                tempRecords[i].isUnlocked = true;\r\n                records[account][i] = LockRecord(tempRecords[i].lockingPeriod, tempRecords[i].tokens, tempRecords[i].isUnlocked);\r\n            }\r\n        }\r\n        _unlockedTokens[account] = _unlockedTokens[account].add(unlockedTokenCount);\r\n        return true;\r\n    }        \r\n}",
  "sourcePath": "/home/sdc/rigel/rigelprotocol/contracts/RigelToken.sol",
  "compiler": {
    "name": "solc",
    "version": "0.6.12+commit.27d51765.Emscripten.clang"
  },
  "schemaVersion": "3.3.2",
  "updatedAt": "2020-12-10T19:08:21.434Z",
  "devdoc": {
    "details": "Implementation of the Owned Contract.",
    "kind": "dev",
    "methods": {},
    "version": 1
  },
  "userdoc": {
    "kind": "user",
    "methods": {},
    "version": 1
  }
}