{
  "contractName": "RigelToken",
  "abi": [
    {
      "inputs": [
        {
          "internalType": "address",
          "name": "owner",
          "type": "address"
        }
      ],
      "stateMutability": "nonpayable",
      "type": "constructor"
    },
    {
      "anonymous": false,
      "inputs": [
        {
          "indexed": true,
          "internalType": "address",
          "name": "owner",
          "type": "address"
        },
        {
          "indexed": true,
          "internalType": "address",
          "name": "spender",
          "type": "address"
        },
        {
          "indexed": false,
          "internalType": "uint256",
          "name": "value",
          "type": "uint256"
        }
      ],
      "name": "Approval",
      "type": "event"
    },
    {
      "anonymous": false,
      "inputs": [
        {
          "indexed": true,
          "internalType": "address",
          "name": "_from",
          "type": "address"
        },
        {
          "indexed": true,
          "internalType": "address",
          "name": "_to",
          "type": "address"
        }
      ],
      "name": "OwnershipTransferred",
      "type": "event"
    },
    {
      "anonymous": false,
      "inputs": [
        {
          "indexed": true,
          "internalType": "address",
          "name": "from",
          "type": "address"
        },
        {
          "indexed": true,
          "internalType": "address",
          "name": "to",
          "type": "address"
        },
        {
          "indexed": false,
          "internalType": "uint256",
          "name": "value",
          "type": "uint256"
        }
      ],
      "name": "Transfer",
      "type": "event"
    },
    {
      "inputs": [],
      "name": "_newOwner",
      "outputs": [
        {
          "internalType": "address",
          "name": "",
          "type": "address"
        }
      ],
      "stateMutability": "view",
      "type": "function"
    },
    {
      "inputs": [],
      "name": "_owner",
      "outputs": [
        {
          "internalType": "address",
          "name": "",
          "type": "address"
        }
      ],
      "stateMutability": "view",
      "type": "function"
    },
    {
      "inputs": [],
      "name": "acceptOwnership",
      "outputs": [],
      "stateMutability": "nonpayable",
      "type": "function"
    },
    {
      "inputs": [
        {
          "internalType": "address",
          "name": "newOwner",
          "type": "address"
        }
      ],
      "name": "transferOwnership",
      "outputs": [],
      "stateMutability": "nonpayable",
      "type": "function"
    },
    {
      "inputs": [],
      "name": "name",
      "outputs": [
        {
          "internalType": "string",
          "name": "",
          "type": "string"
        }
      ],
      "stateMutability": "view",
      "type": "function"
    },
    {
      "inputs": [],
      "name": "symbol",
      "outputs": [
        {
          "internalType": "string",
          "name": "",
          "type": "string"
        }
      ],
      "stateMutability": "view",
      "type": "function"
    },
    {
      "inputs": [],
      "name": "decimals",
      "outputs": [
        {
          "internalType": "uint8",
          "name": "",
          "type": "uint8"
        }
      ],
      "stateMutability": "view",
      "type": "function"
    },
    {
      "inputs": [],
      "name": "totalSupply",
      "outputs": [
        {
          "internalType": "uint256",
          "name": "",
          "type": "uint256"
        }
      ],
      "stateMutability": "view",
      "type": "function"
    },
    {
      "inputs": [
        {
          "internalType": "address",
          "name": "account",
          "type": "address"
        }
      ],
      "name": "balanceOf",
      "outputs": [
        {
          "internalType": "uint256",
          "name": "",
          "type": "uint256"
        }
      ],
      "stateMutability": "view",
      "type": "function"
    },
    {
      "inputs": [
        {
          "internalType": "address",
          "name": "account",
          "type": "address"
        }
      ],
      "name": "unLockedBalanceOf",
      "outputs": [
        {
          "internalType": "uint256",
          "name": "",
          "type": "uint256"
        }
      ],
      "stateMutability": "view",
      "type": "function"
    },
    {
      "inputs": [
        {
          "internalType": "address",
          "name": "recipient",
          "type": "address"
        },
        {
          "internalType": "uint256",
          "name": "amount",
          "type": "uint256"
        }
      ],
      "name": "transfer",
      "outputs": [
        {
          "internalType": "bool",
          "name": "",
          "type": "bool"
        }
      ],
      "stateMutability": "nonpayable",
      "type": "function"
    },
    {
      "inputs": [
        {
          "internalType": "address",
          "name": "owner",
          "type": "address"
        },
        {
          "internalType": "address",
          "name": "spender",
          "type": "address"
        }
      ],
      "name": "allowance",
      "outputs": [
        {
          "internalType": "uint256",
          "name": "",
          "type": "uint256"
        }
      ],
      "stateMutability": "view",
      "type": "function"
    },
    {
      "inputs": [
        {
          "internalType": "address",
          "name": "spender",
          "type": "address"
        },
        {
          "internalType": "uint256",
          "name": "amount",
          "type": "uint256"
        }
      ],
      "name": "approve",
      "outputs": [
        {
          "internalType": "bool",
          "name": "",
          "type": "bool"
        }
      ],
      "stateMutability": "nonpayable",
      "type": "function"
    },
    {
      "inputs": [
        {
          "internalType": "address",
          "name": "sender",
          "type": "address"
        },
        {
          "internalType": "address",
          "name": "recipient",
          "type": "address"
        },
        {
          "internalType": "uint256",
          "name": "amount",
          "type": "uint256"
        }
      ],
      "name": "transferFrom",
      "outputs": [
        {
          "internalType": "bool",
          "name": "",
          "type": "bool"
        }
      ],
      "stateMutability": "nonpayable",
      "type": "function"
    },
    {
      "inputs": [
        {
          "internalType": "address",
          "name": "account",
          "type": "address"
        },
        {
          "internalType": "uint256",
          "name": "amount",
          "type": "uint256"
        }
      ],
      "name": "burn",
      "outputs": [],
      "stateMutability": "nonpayable",
      "type": "function"
    },
    {
      "inputs": [
        {
          "internalType": "address",
          "name": "to",
          "type": "address"
        },
        {
          "internalType": "uint256",
          "name": "tokens",
          "type": "uint256"
        },
        {
          "internalType": "uint256",
          "name": "lockingPeriod",
          "type": "uint256"
        }
      ],
      "name": "distributeTokens",
      "outputs": [
        {
          "internalType": "bool",
          "name": "success",
          "type": "bool"
        }
      ],
      "stateMutability": "nonpayable",
      "type": "function"
    }
  ],
  "bytecode": "0x60806040523480156200001157600080fd5b5060405162002a9638038062002a96833981810160405260208110156200003757600080fd5b81019080805190602001909291905050506040518060400160405280600a81526020017f526967656c546f6b656e000000000000000000000000000000000000000000008152506007908051906020019062000095929190620002af565b506040518060400160405280600381526020017f524750000000000000000000000000000000000000000000000000000000000081525060089080519060200190620000e3929190620002af565b506012600960006101000a81548160ff021916908360ff1602179055506a108b2a2c28029094000000600681905550806000806101000a81548173ffffffffffffffffffffffffffffffffffffffff021916908373ffffffffffffffffffffffffffffffffffffffff160217905550600654600260008060009054906101000a900473ffffffffffffffffffffffffffffffffffffffff1673ffffffffffffffffffffffffffffffffffffffff1673ffffffffffffffffffffffffffffffffffffffff16815260200190815260200160002081905550600654600360008060009054906101000a900473ffffffffffffffffffffffffffffffffffffffff1673ffffffffffffffffffffffffffffffffffffffff1673ffffffffffffffffffffffffffffffffffffffff1681526020019081526020016000208190555060008054906101000a900473ffffffffffffffffffffffffffffffffffffffff1673ffffffffffffffffffffffffffffffffffffffff16600073ffffffffffffffffffffffffffffffffffffffff167fddf252ad1be2c89b69c2b068fc378daa952ba7f163c4a11628f55a4df523b3ef6006546040518082815260200191505060405180910390a35062000355565b828054600181600116156101000203166002900490600052602060002090601f016020900481019282601f10620002f257805160ff191683800117855562000323565b8280016001018555821562000323579182015b828111156200032257825182559160200191906001019062000305565b5b50905062000332919062000336565b5090565b5b808211156200035157600081600090555060010162000337565b5090565b61273180620003656000396000f3fe608060405234801561001057600080fd5b50600436106101005760003560e01c806395d89b4111610097578063b74908fe11610066578063b74908fe146104d2578063cc254bdd14610506578063dd62ed3e14610574578063f2fde38b146105ec57610100565b806395d89b41146103695780639dc29fac146103ec578063a9059cbb1461043a578063b2bdfa7b1461049e57610100565b806324a14c24116100d357806324a14c241461028e578063313ce567146102e657806370a082311461030757806379ba50971461035f57610100565b806306fdde0314610105578063095ea7b31461018857806318160ddd146101ec57806323b872dd1461020a575b600080fd5b61010d610630565b6040518080602001828103825283818151815260200191508051906020019080838360005b8381101561014d578082015181840152602081019050610132565b50505050905090810190601f16801561017a5780820380516001836020036101000a031916815260200191505b509250505060405180910390f35b6101d46004803603604081101561019e57600080fd5b81019080803573ffffffffffffffffffffffffffffffffffffffff169060200190929190803590602001909291905050506106d2565b60405180821515815260200191505060405180910390f35b6101f4610857565b6040518082815260200191505060405180910390f35b6102766004803603606081101561022057600080fd5b81019080803573ffffffffffffffffffffffffffffffffffffffff169060200190929190803573ffffffffffffffffffffffffffffffffffffffff16906020019092919080359060200190929190505050610861565b60405180821515815260200191505060405180910390f35b6102d0600480360360208110156102a457600080fd5b81019080803573ffffffffffffffffffffffffffffffffffffffff169060200190929190505050610b61565b6040518082815260200191505060405180910390f35b6102ee610baa565b604051808260ff16815260200191505060405180910390f35b6103496004803603602081101561031d57600080fd5b81019080803573ffffffffffffffffffffffffffffffffffffffff169060200190929190505050610bc1565b6040518082815260200191505060405180910390f35b610367610c0a565b005b610371610df9565b6040518080602001828103825283818151815260200191508051906020019080838360005b838110156103b1578082015181840152602081019050610396565b50505050905090810190601f1680156103de5780820380516001836020036101000a031916815260200191505b509250505060405180910390f35b6104386004803603604081101561040257600080fd5b81019080803573ffffffffffffffffffffffffffffffffffffffff16906020019092919080359060200190929190505050610e9b565b005b6104866004803603604081101561045057600080fd5b81019080803573ffffffffffffffffffffffffffffffffffffffff16906020019092919080359060200190929190505050611236565b60405180821515815260200191505060405180910390f35b6104a6611254565b604051808273ffffffffffffffffffffffffffffffffffffffff16815260200191505060405180910390f35b6104da611278565b604051808273ffffffffffffffffffffffffffffffffffffffff16815260200191505060405180910390f35b61055c6004803603606081101561051c57600080fd5b81019080803573ffffffffffffffffffffffffffffffffffffffff169060200190929190803590602001909291908035906020019092919050505061129e565b60405180821515815260200191505060405180910390f35b6105d66004803603604081101561058a57600080fd5b81019080803573ffffffffffffffffffffffffffffffffffffffff169060200190929190803573ffffffffffffffffffffffffffffffffffffffff1690602001909291905050506113a0565b6040518082815260200191505060405180910390f35b61062e6004803603602081101561060257600080fd5b81019080803573ffffffffffffffffffffffffffffffffffffffff169060200190929190505050611427565b005b606060078054600181600116156101000203166002900480601f0160208091040260200160405190810160405280929190818152602001828054600181600116156101000203166002900480156106c85780601f1061069d576101008083540402835291602001916106c8565b820191906000526020600020905b8154815290600101906020018083116106ab57829003601f168201915b5050505050905090565b60008073ffffffffffffffffffffffffffffffffffffffff168373ffffffffffffffffffffffffffffffffffffffff161415610759576040517f08c379a00000000000000000000000000000000000000000000000000000000081526004018080602001828103825260278152602001806125d06027913960400191505060405180910390fd5b8160046000610766611516565b73ffffffffffffffffffffffffffffffffffffffff1673ffffffffffffffffffffffffffffffffffffffff16815260200190815260200160002060008573ffffffffffffffffffffffffffffffffffffffff1673ffffffffffffffffffffffffffffffffffffffff168152602001908152602001600020819055508273ffffffffffffffffffffffffffffffffffffffff16610800611516565b73ffffffffffffffffffffffffffffffffffffffff167f8c5be1e5ebec7d5bd14f71427d1e84f3dd0314c0f7b2291e5b200ac8c7c3b925846040518082815260200191505060405180910390a36001905092915050565b6000600654905090565b6000600460008573ffffffffffffffffffffffffffffffffffffffff1673ffffffffffffffffffffffffffffffffffffffff16815260200190815260200160002060006108ac611516565b73ffffffffffffffffffffffffffffffffffffffff1673ffffffffffffffffffffffffffffffffffffffff1681526020019081526020016000205482111561093f576040517f08c379a000000000000000000000000000000000000000000000000000000000815260040180806020018281038252603181526020018061265f6031913960400191505060405180910390fd5b61094a84848461151e565b6109e082600460008773ffffffffffffffffffffffffffffffffffffffff1673ffffffffffffffffffffffffffffffffffffffff1681526020019081526020016000206000610997611516565b73ffffffffffffffffffffffffffffffffffffffff1673ffffffffffffffffffffffffffffffffffffffff16815260200190815260200160002054611a9e90919063ffffffff16565b600460008673ffffffffffffffffffffffffffffffffffffffff1673ffffffffffffffffffffffffffffffffffffffff1681526020019081526020016000206000610a29611516565b73ffffffffffffffffffffffffffffffffffffffff1673ffffffffffffffffffffffffffffffffffffffff16815260200190815260200160002081905550610a6f611516565b73ffffffffffffffffffffffffffffffffffffffff168473ffffffffffffffffffffffffffffffffffffffff167f8c5be1e5ebec7d5bd14f71427d1e84f3dd0314c0f7b2291e5b200ac8c7c3b925600460008873ffffffffffffffffffffffffffffffffffffffff1673ffffffffffffffffffffffffffffffffffffffff1681526020019081526020016000206000610b06611516565b73ffffffffffffffffffffffffffffffffffffffff1673ffffffffffffffffffffffffffffffffffffffff168152602001908152602001600020546040518082815260200191505060405180910390a3600190509392505050565b6000600360008373ffffffffffffffffffffffffffffffffffffffff1673ffffffffffffffffffffffffffffffffffffffff168152602001908152602001600020549050919050565b6000600960009054906101000a900460ff16905090565b6000600260008373ffffffffffffffffffffffffffffffffffffffff1673ffffffffffffffffffffffffffffffffffffffff168152602001908152602001600020549050919050565b600160009054906101000a900473ffffffffffffffffffffffffffffffffffffffff1673ffffffffffffffffffffffffffffffffffffffff16610c4b611516565b73ffffffffffffffffffffffffffffffffffffffff1614610cb7576040517f08c379a00000000000000000000000000000000000000000000000000000000081526004018080602001828103825260458152602001806126b76045913960600191505060405180910390fd5b600160009054906101000a900473ffffffffffffffffffffffffffffffffffffffff1673ffffffffffffffffffffffffffffffffffffffff1660008054906101000a900473ffffffffffffffffffffffffffffffffffffffff1673ffffffffffffffffffffffffffffffffffffffff167f8be0079c531659141344cd1fd0a4f28419497f9722a3daafe3b4186f6b6457e060405160405180910390a3600160009054906101000a900473ffffffffffffffffffffffffffffffffffffffff166000806101000a81548173ffffffffffffffffffffffffffffffffffffffff021916908373ffffffffffffffffffffffffffffffffffffffff1602179055506000600160006101000a81548173ffffffffffffffffffffffffffffffffffffffff021916908373ffffffffffffffffffffffffffffffffffffffff160217905550565b606060088054600181600116156101000203166002900480601f016020809104026020016040519081016040528092919081815260200182805460018160011615610100020316600290048015610e915780601f10610e6657610100808354040283529160200191610e91565b820191906000526020600020905b815481529060010190602001808311610e7457829003601f168201915b5050505050905090565b60008054906101000a900473ffffffffffffffffffffffffffffffffffffffff1673ffffffffffffffffffffffffffffffffffffffff16610eda611516565b73ffffffffffffffffffffffffffffffffffffffff1614610f46576040517f08c379a00000000000000000000000000000000000000000000000000000000081526004018080602001828103825260408152602001806125f76040913960400191505060405180910390fd5b600073ffffffffffffffffffffffffffffffffffffffff168273ffffffffffffffffffffffffffffffffffffffff161415610fcc576040517f08c379a00000000000000000000000000000000000000000000000000000000081526004018080602001828103825260268152602001806125aa6026913960400191505060405180910390fd5b6110388160405180606001604052806027815260200161269060279139600260008673ffffffffffffffffffffffffffffffffffffffff1673ffffffffffffffffffffffffffffffffffffffff16815260200190815260200160002054611ae89092919063ffffffff16565b600260008473ffffffffffffffffffffffffffffffffffffffff1673ffffffffffffffffffffffffffffffffffffffff16815260200190815260200160002081905550600360008373ffffffffffffffffffffffffffffffffffffffff1673ffffffffffffffffffffffffffffffffffffffff16815260200190815260200160002054600260008473ffffffffffffffffffffffffffffffffffffffff1673ffffffffffffffffffffffffffffffffffffffff1681526020019081526020016000205414156111b15761116d8160405180606001604052806027815260200161269060279139600360008673ffffffffffffffffffffffffffffffffffffffff1673ffffffffffffffffffffffffffffffffffffffff16815260200190815260200160002054611ae89092919063ffffffff16565b600360008473ffffffffffffffffffffffffffffffffffffffff1673ffffffffffffffffffffffffffffffffffffffff168152602001908152602001600020819055505b6111c681600654611a9e90919063ffffffff16565b600681905550600073ffffffffffffffffffffffffffffffffffffffff168273ffffffffffffffffffffffffffffffffffffffff167fddf252ad1be2c89b69c2b068fc378daa952ba7f163c4a11628f55a4df523b3ef836040518082815260200191505060405180910390a35050565b600061124a611243611516565b848461151e565b6001905092915050565b60008054906101000a900473ffffffffffffffffffffffffffffffffffffffff1681565b600160009054906101000a900473ffffffffffffffffffffffffffffffffffffffff1681565b60008060009054906101000a900473ffffffffffffffffffffffffffffffffffffffff1673ffffffffffffffffffffffffffffffffffffffff166112e0611516565b73ffffffffffffffffffffffffffffffffffffffff161461134c576040517f08c379a00000000000000000000000000000000000000000000000000000000081526004018080602001828103825260408152602001806125f76040913960400191505060405180910390fd5b6113568484611236565b5060008214156113775761137261136b611516565b858561151e565b61138a565b611389611382611516565b8585611ba8565b5b611395848484611ff3565b600190509392505050565b6000600460008473ffffffffffffffffffffffffffffffffffffffff1673ffffffffffffffffffffffffffffffffffffffff16815260200190815260200160002060008373ffffffffffffffffffffffffffffffffffffffff1673ffffffffffffffffffffffffffffffffffffffff16815260200190815260200160002054905092915050565b60008054906101000a900473ffffffffffffffffffffffffffffffffffffffff1673ffffffffffffffffffffffffffffffffffffffff16611466611516565b73ffffffffffffffffffffffffffffffffffffffff16146114d2576040517f08c379a00000000000000000000000000000000000000000000000000000000081526004018080602001828103825260408152602001806125f76040913960400191505060405180910390fd5b80600160006101000a81548173ffffffffffffffffffffffffffffffffffffffff021916908373ffffffffffffffffffffffffffffffffffffffff16021790555050565b600033905090565b600073ffffffffffffffffffffffffffffffffffffffff168273ffffffffffffffffffffffffffffffffffffffff1614156115a4576040517f08c379a00000000000000000000000000000000000000000000000000000000081526004018080602001828103825260318152602001806125796031913960400191505060405180910390fd5b600073ffffffffffffffffffffffffffffffffffffffff168373ffffffffffffffffffffffffffffffffffffffff16141561162a576040517f08c379a000000000000000000000000000000000000000000000000000000000815260040180806020018281038252602e81526020018061254b602e913960400191505060405180910390fd5b80600260008573ffffffffffffffffffffffffffffffffffffffff1673ffffffffffffffffffffffffffffffffffffffff1681526020019081526020016000205410156116df576040517f08c379a00000000000000000000000000000000000000000000000000000000081526004018080602001828103825260208152602001807f526967656c546f6b656e3a20496e73756666696369656e742042616c616e636581525060200191505060405180910390fd5b600260008373ffffffffffffffffffffffffffffffffffffffff1673ffffffffffffffffffffffffffffffffffffffff1681526020019081526020016000205481600260008573ffffffffffffffffffffffffffffffffffffffff1673ffffffffffffffffffffffffffffffffffffffff168152602001908152602001600020540110156117d5576040517f08c379a00000000000000000000000000000000000000000000000000000000081526004018080602001828103825260208152602001807f526967656c546f6b656e3a2042616c616e636520636865636b206661696c656481525060200191505060405180910390fd5b6117df83826120b4565b5061183281600360008673ffffffffffffffffffffffffffffffffffffffff1673ffffffffffffffffffffffffffffffffffffffff16815260200190815260200160002054611a9e90919063ffffffff16565b600360008573ffffffffffffffffffffffffffffffffffffffff1673ffffffffffffffffffffffffffffffffffffffff168152602001908152602001600020819055506118c781600360008573ffffffffffffffffffffffffffffffffffffffff1673ffffffffffffffffffffffffffffffffffffffff168152602001908152602001600020546121b590919063ffffffff16565b600360008473ffffffffffffffffffffffffffffffffffffffff1673ffffffffffffffffffffffffffffffffffffffff1681526020019081526020016000208190555061195c81600260008673ffffffffffffffffffffffffffffffffffffffff1673ffffffffffffffffffffffffffffffffffffffff16815260200190815260200160002054611a9e90919063ffffffff16565b600260008573ffffffffffffffffffffffffffffffffffffffff1673ffffffffffffffffffffffffffffffffffffffff168152602001908152602001600020819055506119f181600260008573ffffffffffffffffffffffffffffffffffffffff1673ffffffffffffffffffffffffffffffffffffffff168152602001908152602001600020546121b590919063ffffffff16565b600260008473ffffffffffffffffffffffffffffffffffffffff1673ffffffffffffffffffffffffffffffffffffffff168152602001908152602001600020819055508173ffffffffffffffffffffffffffffffffffffffff168373ffffffffffffffffffffffffffffffffffffffff167fddf252ad1be2c89b69c2b068fc378daa952ba7f163c4a11628f55a4df523b3ef836040518082815260200191505060405180910390a3505050565b6000611ae083836040518060400160405280601e81526020017f536166654d6174683a207375627472616374696f6e206f766572666c6f770000815250611ae8565b905092915050565b6000838311158290611b95576040517f08c379a00000000000000000000000000000000000000000000000000000000081526004018080602001828103825283818151815260200191508051906020019080838360005b83811015611b5a578082015181840152602081019050611b3f565b50505050905090810190601f168015611b875780820380516001836020036101000a031916815260200191505b509250505060405180910390fd5b5060008385039050809150509392505050565b600073ffffffffffffffffffffffffffffffffffffffff168273ffffffffffffffffffffffffffffffffffffffff161415611c2e576040517f08c379a00000000000000000000000000000000000000000000000000000000081526004018080602001828103825260318152602001806125796031913960400191505060405180910390fd5b600073ffffffffffffffffffffffffffffffffffffffff168373ffffffffffffffffffffffffffffffffffffffff161415611cb4576040517f08c379a000000000000000000000000000000000000000000000000000000000815260040180806020018281038252602e81526020018061254b602e913960400191505060405180910390fd5b80600260008573ffffffffffffffffffffffffffffffffffffffff1673ffffffffffffffffffffffffffffffffffffffff168152602001908152602001600020541015611d69576040517f08c379a00000000000000000000000000000000000000000000000000000000081526004018080602001828103825260208152602001807f526967656c546f6b656e3a20496e73756666696369656e742042616c616e636581525060200191505060405180910390fd5b600260008373ffffffffffffffffffffffffffffffffffffffff1673ffffffffffffffffffffffffffffffffffffffff1681526020019081526020016000205481600260008573ffffffffffffffffffffffffffffffffffffffff1673ffffffffffffffffffffffffffffffffffffffff16815260200190815260200160002054011015611e5f576040517f08c379a00000000000000000000000000000000000000000000000000000000081526004018080602001828103825260208152602001807f526967656c546f6b656e3a2042616c616e636520636865636b206661696c656481525060200191505060405180910390fd5b611eb181600260008673ffffffffffffffffffffffffffffffffffffffff1673ffffffffffffffffffffffffffffffffffffffff16815260200190815260200160002054611a9e90919063ffffffff16565b600260008573ffffffffffffffffffffffffffffffffffffffff1673ffffffffffffffffffffffffffffffffffffffff16815260200190815260200160002081905550611f4681600260008573ffffffffffffffffffffffffffffffffffffffff1673ffffffffffffffffffffffffffffffffffffffff168152602001908152602001600020546121b590919063ffffffff16565b600260008473ffffffffffffffffffffffffffffffffffffffff1673ffffffffffffffffffffffffffffffffffffffff168152602001908152602001600020819055508173ffffffffffffffffffffffffffffffffffffffff168373ffffffffffffffffffffffffffffffffffffffff167fddf252ad1be2c89b69c2b068fc378daa952ba7f163c4a11628f55a4df523b3ef836040518082815260200191505060405180910390a3505050565b600560008473ffffffffffffffffffffffffffffffffffffffff1673ffffffffffffffffffffffffffffffffffffffff1681526020019081526020016000206040518060600160405280838152602001848152602001600015158152509080600181540180825580915050600190039060005260206000209060030201600090919091909150600082015181600001556020820151816001015560408201518160020160006101000a81548160ff0219169083151502179055505050505050565b600081600360008573ffffffffffffffffffffffffffffffffffffffff1673ffffffffffffffffffffffffffffffffffffffff168152602001908152602001600020541061210557600190506121af565b61210e8361223d565b5081600360008573ffffffffffffffffffffffffffffffffffffffff1673ffffffffffffffffffffffffffffffffffffffff168152602001908152602001600020541061215e57600190506121af565b6040517f08c379a00000000000000000000000000000000000000000000000000000000081526004018080602001828103825260288152602001806126376028913960400191505060405180910390fd5b92915050565b600080828401905083811015612233576040517f08c379a000000000000000000000000000000000000000000000000000000000815260040180806020018281038252601b8152602001807f536166654d6174683a206164646974696f6e206f766572666c6f77000000000081525060200191505060405180910390fd5b8091505092915050565b60006060600560008473ffffffffffffffffffffffffffffffffffffffff1673ffffffffffffffffffffffffffffffffffffffff168152602001908152602001600020805480602002602001604051908101604052809291908181526020016000905b82821015612301578382906000526020600020906003020160405180606001604052908160008201548152602001600182015481526020016002820160009054906101000a900460ff161515151581525050815260200190600101906122a0565b5050505090506000805b82518110156124a9574283828151811061232157fe5b60200260200101516000015110801561235557506000151583828151811061234557fe5b6020026020010151604001511515145b1561249c5761238483828151811061236957fe5b602002602001015160200151836121b590919063ffffffff16565b9150600183828151811061239457fe5b6020026020010151604001901515908115158152505060405180606001604052808483815181106123c157fe5b60200260200101516000015181526020018483815181106123de57fe5b60200260200101516020015181526020018483815181106123fb57fe5b6020026020010151604001511515815250600560008773ffffffffffffffffffffffffffffffffffffffff1673ffffffffffffffffffffffffffffffffffffffff168152602001908152602001600020828154811061245657fe5b9060005260206000209060030201600082015181600001556020820151816001015560408201518160020160006101000a81548160ff0219169083151502179055509050505b808060010191505061230b565b506124fc81600360008773ffffffffffffffffffffffffffffffffffffffff1673ffffffffffffffffffffffffffffffffffffffff168152602001908152602001600020546121b590919063ffffffff16565b600360008673ffffffffffffffffffffffffffffffffffffffff1673ffffffffffffffffffffffffffffffffffffffff1681526020019081526020016000208190555060019250505091905056fe526967656c546f6b656e3a2043616e6e6f7420686176652073656e646572206173207a65726f2061646472657373526967656c546f6b656e3a2043616e6e6f74206861766520726563697069656e74206173207a65726f2061646472657373526967656c546f6b656e3a206275726e2066726f6d20746865207a65726f2061646472657373526967656c546f6b656e3a20617070726f766520746f20746865207a65726f2061646472657373526967656c546f6b656e3a204f6e6c7920746865204f776e6572206f662074686520636f6e74726163742063616e20706572666f726d2074686973207461736b526967656c546f6b656e3a20496e73756666696369656e7420756e6c6f636b656420746f6b656e73526967656c546f6b656e3a20436865636b20666f7220617070726f76656420746f6b656e20636f756e74206661696c6564526967656c546f6b656e3a206275726e20616d6f756e7420657863656564732062616c616e6365526967656c546f6b656e3a20546f6b656e20436f6e7472616374204f776e65727368697020686173206e6f74206265656e2073657420666f72207468652061646472657373a2646970667358221220df4cd64ad30a25ebbdb5bd677929d8cf0edb3e0d45fa5d886beab6ef05c4ae5764736f6c634300060c0033",
  "immutableReferences": {},
  "source": "// SPDX-License-Identifier: MIT\r\npragma solidity 0.6.12;\r\n\r\nimport \"@openzeppelin/contracts/token/ERC20/IERC20.sol\";\r\nimport \"@openzeppelin/contracts/math/SafeMath.sol\";\r\nimport \"@openzeppelin/contracts/GSN/Context.sol\";\r\n\r\n\r\n/**\r\n * @dev Implementation of the Owned Contract.\r\n *\r\n */\r\ncontract Owned is Context {\r\n\r\n    address public _owner;\r\n    address public _newOwner;\r\n\r\n    event OwnershipTransferred(address indexed _from, address indexed _to);\r\n\r\n    modifier onlyOwner {\r\n        require(_msgSender() == _owner, \"RigelToken: Only Owner can perform this task\");\r\n        _;\r\n    }\r\n\r\n    function transferOwnership(address newOwner) public onlyOwner {\r\n        _newOwner = newOwner;\r\n    }\r\n\r\n    function acceptOwnership() public {\r\n        require(_msgSender() == _newOwner, \"RigelToken: Token Contract Ownership has not been set for the address\");\r\n        emit OwnershipTransferred(_owner, _newOwner);\r\n        _owner = _newOwner;\r\n        _newOwner = address(0);\r\n    }\r\n}\r\n\r\n/**\r\n * @dev Implementation of the {IERC20} interface.\r\n *\r\n */\r\ncontract RigelToken is IERC20, Owned {\r\n\r\n    using SafeMath for uint256;\r\n    \r\n    mapping (address => uint256) private _balances; // Total balance per address (locked + unlocked)\r\n\r\n    mapping (address => uint256) private _unlockedTokens; // Unlocked Tokens, available for transfer\r\n\r\n    mapping (address => mapping (address => uint256)) private _allowances;\r\n\r\n    struct LockRecord {\r\n        uint256 lockingPeriod;\r\n        uint256 tokens;\r\n        bool isUnlocked;\r\n    }\r\n\r\n    mapping(address => LockRecord[]) records; // Record of Locking periods and tokens per address\r\n\r\n    uint256 private _totalSupply;\r\n\r\n    string private _name;\r\n    string private _symbol;\r\n    uint8 private _decimals;\r\n\r\n    constructor( address owner ) public {\r\n        _name = \"RigelToken\";\r\n        _symbol = \"RGP\";\r\n        _decimals = 18;\r\n        _totalSupply = 20000000 * (10 ** 18);\r\n        _owner = owner;\r\n        _balances[_owner] = _totalSupply;\r\n        _unlockedTokens[_owner] = _totalSupply;\r\n        emit Transfer(address(0), _owner, _totalSupply );\r\n    }\r\n\r\n    /**\r\n     * @dev Returns the name of the token.\r\n     */\r\n    function name() public view returns (string memory) {\r\n        return _name;\r\n    }\r\n\r\n    /**\r\n     * @dev Returns the symbol of the token, usually a shorter version of the\r\n     * name.\r\n     */\r\n    function symbol() public view returns (string memory) {\r\n        return _symbol;\r\n    }\r\n\r\n    /**\r\n     * @dev Returns the number of decimals used to get its user representation.\r\n     * For example, if `decimals` equals `2`, a balance of `505` tokens should\r\n     * be displayed to a user as `5,05` (`505 / 10 ** 2`).\r\n     */\r\n    function decimals() public view returns (uint8) {\r\n        return _decimals;\r\n    }\r\n\r\n    /**\r\n     * @dev See {IERC20-totalSupply}.\r\n     */\r\n    function totalSupply() public view override returns (uint256) {\r\n        return _totalSupply;\r\n    }\r\n\r\n    /**\r\n     * @dev See {IERC20-balanceOf}.\r\n     */\r\n    function balanceOf(address account) public view override returns (uint256) {\r\n        return _balances[account];\r\n    }\r\n\r\n    /**\r\n     * @dev See {IERC20-balanceOf}.\r\n     */\r\n    function unLockedBalanceOf(address account) public view returns (uint256) {\r\n        return _unlockedTokens[account];\r\n    }\r\n\r\n    /**\r\n     * @dev See {IERC20-transfer}.\r\n     *\r\n     * Requirements:\r\n     *\r\n     * - `recipient` cannot be the zero address.\r\n     * - the caller must have a balance of at least `amount`.\r\n     */\r\n    function transfer(address recipient, uint256 amount) public override returns (bool) {\r\n\r\n        _transfer(_msgSender(),recipient,amount);\r\n        return true;\r\n    }\r\n\r\n    /**\r\n     * @dev See {IERC20-allowance}.\r\n     */\r\n    function allowance(address owner, address spender) public view override returns (uint256) {\r\n        return _allowances[owner][spender];\r\n    }\r\n\r\n    /**\r\n     * @dev See {IERC20-approve}.\r\n     *\r\n     * Requirements:\r\n     *\r\n     * - `spender` cannot be the zero address.\r\n     */\r\n    function approve(address spender, uint256 amount) public override returns (bool) {\r\n        \r\n        require(spender != address(0), \"RigelToken: approve to the zero address\");\r\n\r\n        _allowances[_msgSender()][spender] = amount;\r\n        emit Approval(_msgSender(), spender, amount);\r\n\r\n        return true;\r\n    }\r\n\r\n    /**\r\n     * @dev See {IERC20-transferFrom}.\r\n     *\r\n     * Emits an {Approval} event indicating the updated allowance. This is not\r\n     * required by the EIP. See the note at the beginning of {ERC20}.\r\n     *\r\n     * Requirements:\r\n     *\r\n     * - `sender` and `recipient` cannot be the zero address.\r\n     * - `sender` must have a balance of at least `amount`.\r\n     * - the caller must have allowance for ``sender``'s tokens of at least\r\n     * `amount`.\r\n     */\r\n    function transferFrom(address sender, address recipient, uint256 amount) public override returns (bool) {\r\n\r\n        require(amount <= _allowances[sender][_msgSender()],\"RigelToken: Check for approved token count failed\");\r\n\r\n        _transfer(sender,recipient,amount);\r\n        \r\n        _allowances[sender][_msgSender()] = _allowances[sender][_msgSender()].sub(amount);\r\n\r\n        emit Approval(sender, _msgSender(), _allowances[sender][_msgSender()]);\r\n\r\n        return true;\r\n    }\r\n\r\n    function _transfer(address sender, address recipient, uint256 amount) private {\r\n        \r\n        require(recipient != address(0),\"RigelToken: Cannot have recipient as zero address\");\r\n        require(sender != address(0),\"RigelToken: Cannot have sender as zero address\");\r\n        require(_balances[sender] >= amount,\"RigelToken: Insufficient Balance\" );\r\n        require(_balances[recipient] + amount >= _balances[recipient],\"RigelToken: Balance check failed\");\r\n        \r\n        // update the unlocked tokens based on time\r\n\r\n        _updateUnLockedTokens(sender, amount);\r\n        _unlockedTokens[sender] = _unlockedTokens[sender].sub(amount);\r\n        _unlockedTokens[recipient] = _unlockedTokens[recipient].add(amount);\r\n\r\n        _balances[sender] = _balances[sender].sub(amount);\r\n        _balances[recipient] = _balances[recipient].add(amount);\r\n        \r\n        emit Transfer(sender,recipient,amount);\r\n    }\r\n\r\n    function _transferLock(address sender, address recipient, uint256 amount) private {\r\n        \r\n        require(recipient != address(0),\"RigelToken: Cannot have recipient as zero address\");\r\n        require(sender != address(0),\"RigelToken: Cannot have sender as zero address\");\r\n        require(_balances[sender] >= amount,\"RigelToken: Insufficient Balance\" );\r\n        require(_balances[recipient] + amount >= _balances[recipient],\"RigelToken: Balance check failed\");\r\n        \r\n        // update the unlocked tokens based on time\r\n\r\n        _balances[sender] = _balances[sender].sub(amount);\r\n        _balances[recipient] = _balances[recipient].add(amount);\r\n\r\n        emit Transfer(sender,recipient,amount);\r\n    }\r\n    \r\n     /**\r\n     * @dev Destroys `amount` tokens from the `account`.\r\n     *\r\n     * See {ERC20-_burn}.\r\n     */\r\n     \r\n    function burn(address account, uint256 amount) public onlyOwner {\r\n\r\n        require(account != address(0), \"RigelToken: burn from the zero address\");\r\n\r\n        _balances[account] = _balances[account].sub(amount, \"RigelToken: burn amount exceeds balance\");\r\n\r\n        if( _balances[account] == _unlockedTokens[account]){\r\n            _unlockedTokens[account] = _unlockedTokens[account].sub(amount, \"RigelToken: burn amount exceeds balance\");\r\n        }\r\n\r\n        _totalSupply = _totalSupply.sub(amount);\r\n\r\n        emit Transfer(account, address(0), amount);\r\n    }\r\n\r\n    // ------------------------------------------------------------------------\r\n    // Transfer the balance from token owner's _msgSender() to `to` _msgSender()\r\n    // - Owner's _msgSender() must have sufficient balance to transfer\r\n    // - 0 value transfers are allowed\r\n    // - takes in locking Period to lock the tokens to be used\r\n    // - if want to transfer without locking enter 0 in lockingPeriod argument \r\n    // ------------------------------------------------------------------------\r\n    function distributeTokens(address to, uint tokens, uint256 lockingPeriod) onlyOwner public returns (bool success) {\r\n        // transfer tokens to the \"to\" address\r\n        transfer(to, tokens);\r\n        // if there is no lockingPeriod, add tokens to _unlockedTokens per address\r\n        if(lockingPeriod == 0)\r\n            _transfer(_msgSender(),to, tokens);\r\n        // if there is a lockingPeriod, add tokens to record mapping\r\n        else\r\n            _transferLock(_msgSender(),to, tokens);\r\n            _addRecord(to, tokens, lockingPeriod);\r\n        return true;\r\n    }\r\n        \r\n    // ------------------------------------------------------------------------\r\n    // Adds record of addresses with locking period and tokens to lock\r\n    // ------------------------------------------------------------------------\r\n    function _addRecord(address to, uint tokens, uint256 lockingPeriod) private {\r\n        records[to].push(LockRecord(lockingPeriod,tokens, false));\r\n    }\r\n        \r\n    // ------------------------------------------------------------------------\r\n    // Checks if there is required amount of unLockedTokens available\r\n    // ------------------------------------------------------------------------\r\n    function _updateUnLockedTokens(address _from, uint tokens) private returns (bool success) {\r\n        // if _unlockedTokens are greater than \"tokens\" of \"to\", initiate transfer\r\n        if(_unlockedTokens[_from] >= tokens){\r\n            return true;\r\n        }\r\n        // if _unlockedTokens are less than \"tokens\" of \"to\", update _unlockedTokens by checking record with \"now\" time\r\n        else{\r\n            _updateRecord(_from);\r\n            // check if _unlockedTokens are greater than \"token\" of \"to\", initiate transfer\r\n            if(_unlockedTokens[_from] >= tokens){\r\n                return true;\r\n            }\r\n            // otherwise revert\r\n            else{\r\n                revert(\"RigelToken: Insufficient unlocked tokens\");\r\n            }\r\n        }\r\n    }\r\n        \r\n    // ------------------------------------------------------------------------\r\n    // Unlocks the coins if lockingPeriod is expired\r\n    // ------------------------------------------------------------------------\r\n     function _updateRecord(address account) private returns (bool success){\r\n        LockRecord[] memory tempRecords = records[account];\r\n        uint256 unlockedTokenCount = 0;\r\n        for(uint256 i=0; i < tempRecords.length; i++){\r\n            if(tempRecords[i].lockingPeriod < now && tempRecords[i].isUnlocked == false){\r\n                unlockedTokenCount = unlockedTokenCount.add(tempRecords[i].tokens);\r\n                tempRecords[i].isUnlocked = true;\r\n                records[account][i] = LockRecord(tempRecords[i].lockingPeriod, tempRecords[i].tokens, tempRecords[i].isUnlocked);\r\n            }\r\n        }\r\n        _unlockedTokens[account] = _unlockedTokens[account].add(unlockedTokenCount);\r\n        return true;\r\n    }        \r\n}",
  "sourcePath": "/home/sdc/rigel/rigelprotocol/contracts/RigelToken.sol",
  "compiler": {
    "name": "solc",
    "version": "0.6.12+commit.27d51765.Emscripten.clang"
  },
  "schemaVersion": "3.3.2",
  "updatedAt": "2020-12-10T19:08:21.442Z",
  "devdoc": {
    "details": "Implementation of the {IERC20} interface.",
    "kind": "dev",
    "methods": {
      "allowance(address,address)": {
        "details": "See {IERC20-allowance}."
      },
      "approve(address,uint256)": {
        "details": "See {IERC20-approve}. Requirements: - `spender` cannot be the zero address."
      },
      "balanceOf(address)": {
        "details": "See {IERC20-balanceOf}."
      },
      "burn(address,uint256)": {
        "details": "Destroys `amount` tokens from the `account`. See {ERC20-_burn}."
      },
      "decimals()": {
        "details": "Returns the number of decimals used to get its user representation. For example, if `decimals` equals `2`, a balance of `505` tokens should be displayed to a user as `5,05` (`505 / 10 ** 2`)."
      },
      "name()": {
        "details": "Returns the name of the token."
      },
      "symbol()": {
        "details": "Returns the symbol of the token, usually a shorter version of the name."
      },
      "totalSupply()": {
        "details": "See {IERC20-totalSupply}."
      },
      "transfer(address,uint256)": {
        "details": "See {IERC20-transfer}. Requirements: - `recipient` cannot be the zero address. - the caller must have a balance of at least `amount`."
      },
      "transferFrom(address,address,uint256)": {
        "details": "See {IERC20-transferFrom}. Emits an {Approval} event indicating the updated allowance. This is not required by the EIP. See the note at the beginning of {ERC20}. Requirements: - `sender` and `recipient` cannot be the zero address. - `sender` must have a balance of at least `amount`. - the caller must have allowance for ``sender``'s tokens of at least `amount`."
      },
      "unLockedBalanceOf(address)": {
        "details": "See {IERC20-balanceOf}."
      }
    },
    "version": 1
  },
  "userdoc": {
    "kind": "user",
    "methods": {},
    "version": 1
  }
}